{"abi":[{"type":"function","name":"automate","inputs":[{"name":"targetChainId","type":"uint256","internalType":"uint256"},{"name":"targetContract","type":"address","internalType":"address"},{"name":"data","type":"bytes","internalType":"bytes"}],"outputs":[{"name":"","type":"bytes32","internalType":"bytes32"}],"stateMutability":"nonpayable"},{"type":"function","name":"executeRemoteCall","inputs":[{"name":"sourceChainId","type":"uint256","internalType":"uint256"},{"name":"sourceContract","type":"address","internalType":"address"},{"name":"targetContract","type":"address","internalType":"address"},{"name":"data","type":"bytes","internalType":"bytes"}],"outputs":[{"name":"","type":"bool","internalType":"bool"},{"name":"","type":"bytes","internalType":"bytes"}],"stateMutability":"nonpayable"},{"type":"function","name":"executedMessages","inputs":[{"name":"","type":"bytes32","internalType":"bytes32"}],"outputs":[{"name":"","type":"bool","internalType":"bool"}],"stateMutability":"view"},{"type":"function","name":"isMessageExecuted","inputs":[{"name":"msgHash","type":"bytes32","internalType":"bytes32"}],"outputs":[{"name":"","type":"bool","internalType":"bool"}],"stateMutability":"view"},{"type":"function","name":"waitForMessage","inputs":[{"name":"msgHash","type":"bytes32","internalType":"bytes32"}],"outputs":[],"stateMutability":"view"},{"type":"event","name":"CrossChainCallReceived","inputs":[{"name":"sourceChainId","type":"uint256","indexed":true,"internalType":"uint256"},{"name":"sourceContract","type":"address","indexed":true,"internalType":"address"},{"name":"targetContract","type":"address","indexed":true,"internalType":"address"},{"name":"data","type":"bytes","indexed":false,"internalType":"bytes"}],"anonymous":false},{"type":"event","name":"CrossChainFunctionCalled","inputs":[{"name":"targetChainId","type":"uint256","indexed":true,"internalType":"uint256"},{"name":"targetContract","type":"address","indexed":true,"internalType":"address"},{"name":"functionSelector","type":"bytes4","indexed":false,"internalType":"bytes4"},{"name":"data","type":"bytes","indexed":false,"internalType":"bytes"},{"name":"msgHash","type":"bytes32","indexed":false,"internalType":"bytes32"}],"anonymous":false},{"type":"error","name":"CallFailed","inputs":[{"name":"target","type":"address","internalType":"address"},{"name":"reason","type":"bytes","internalType":"bytes"}]},{"type":"error","name":"CallerNotL2toL2CrossDomainMessenger","inputs":[]},{"type":"error","name":"CannotSendToSameChain","inputs":[]},{"type":"error","name":"InvalidCaller","inputs":[]},{"type":"error","name":"RequiredMessageNotSuccessful","inputs":[{"name":"msgHash","type":"bytes32","internalType":"bytes32"}]}],"bytecode":{"object":"0x6080604052348015600e575f5ffd5b50610ef38061001c5f395ff3fe608060405234801561000f575f5ffd5b5060043610610055575f3560e01c8063396c16b714610059578063419053c91461008957806350a691c9146100ba578063ac002b4f146100d6578063cd2abd6614610106575b5f5ffd5b610073600480360381019061006e9190610793565b610136565b60405161008091906107d8565b60405180910390f35b6100a3600480360381019061009e91906108df565b6101ca565b6040516100b19291906109d3565b60405180910390f35b6100d460048036038101906100cf9190610793565b6103e4565b005b6100f060048036038101906100eb9190610a01565b6103f0565b6040516100fd9190610a81565b60405180910390f35b610120600480360381019061011b9190610793565b6105f1565b60405161012d91906107d8565b60405180910390f35b5f73420000000000000000000000000000000000002373ffffffffffffffffffffffffffffffffffffffff1663b1b1b209836040518263ffffffff1660e01b81526004016101849190610a81565b602060405180830381865afa15801561019f573d5f5f3e3d5ffd5b505050506040513d601f19601f820116820180604052508101906101c39190610ac4565b9050919050565b5f60606101d561060d565b3073ffffffffffffffffffffffffffffffffffffffff1673420000000000000000000000000000000000002373ffffffffffffffffffffffffffffffffffffffff166338ffde186040518163ffffffff1660e01b8152600401602060405180830381865afa158015610249573d5f5f3e3d5ffd5b505050506040513d601f19601f8201168201806040525081019061026d9190610b03565b73ffffffffffffffffffffffffffffffffffffffff16146102ba576040517f48f5c3ed00000000000000000000000000000000000000000000000000000000815260040160405180910390fd5b8473ffffffffffffffffffffffffffffffffffffffff168673ffffffffffffffffffffffffffffffffffffffff16887f039ad155a6e731ebacbe0ec447cd3a4aa0bc934fc0aa6b6721dd190ba6a97128878760405161031a929190610b68565b60405180910390a45f5f8673ffffffffffffffffffffffffffffffffffffffff16868660405161034b929190610bb8565b5f604051808303815f865af19150503d805f8114610384576040519150601f19603f3d011682016040523d82523d5f602084013e610389565b606091505b5091509150816103d25786816040517f6c544f330000000000000000000000000000000000000000000000000000000081526004016103c9929190610bdf565b60405180910390fd5b81819350935050509550959350505050565b6103ed81610688565b50565b5f46850361042a576040517fb0747d8100000000000000000000000000000000000000000000000000000000815260040160405180910390fd5b5f63419053c960e01b463387878760405160240161044c959493929190610c1c565b604051602081830303815290604052907bffffffffffffffffffffffffffffffffffffffffffffffffffffffff19166020820180517bffffffffffffffffffffffffffffffffffffffffffffffffffffffff838183161783525050505090505f73420000000000000000000000000000000000002373ffffffffffffffffffffffffffffffffffffffff16637056f41f3073ffffffffffffffffffffffffffffffffffffffff16846104fd90610cc2565b60601c620f42406040516020016105149190610d48565b6040516020818303038152906040526040518463ffffffff1660e01b815260040161054193929190610d62565b6020604051808303815f875af115801561055d573d5f5f3e3d5ffd5b505050506040513d601f19601f820116820180604052508101906105819190610db2565b90508573ffffffffffffffffffffffffffffffffffffffff16877f86fc20a2dd865f32fe06700aa826daf241b0c959de445214b24ede282a9ce4c38787906105c99190610e12565b8888866040516105dc9493929190610e7f565b60405180910390a38092505050949350505050565b5f602052805f5260405f205f915054906101000a900460ff1681565b73420000000000000000000000000000000000002373ffffffffffffffffffffffffffffffffffffffff163373ffffffffffffffffffffffffffffffffffffffff1614610686576040517f1a861d2c00000000000000000000000000000000000000000000000000000000815260040160405180910390fd5b565b73420000000000000000000000000000000000002373ffffffffffffffffffffffffffffffffffffffff1663b1b1b209826040518263ffffffff1660e01b81526004016106d59190610a81565b602060405180830381865afa1580156106f0573d5f5f3e3d5ffd5b505050506040513d601f19601f820116820180604052508101906107149190610ac4565b61075557806040517f5e38ca8600000000000000000000000000000000000000000000000000000000815260040161074c9190610a81565b60405180910390fd5b50565b5f5ffd5b5f5ffd5b5f819050919050565b61077281610760565b811461077c575f5ffd5b50565b5f8135905061078d81610769565b92915050565b5f602082840312156107a8576107a7610758565b5b5f6107b58482850161077f565b91505092915050565b5f8115159050919050565b6107d2816107be565b82525050565b5f6020820190506107eb5f8301846107c9565b92915050565b5f819050919050565b610803816107f1565b811461080d575f5ffd5b50565b5f8135905061081e816107fa565b92915050565b5f73ffffffffffffffffffffffffffffffffffffffff82169050919050565b5f61084d82610824565b9050919050565b61085d81610843565b8114610867575f5ffd5b50565b5f8135905061087881610854565b92915050565b5f5ffd5b5f5ffd5b5f5ffd5b5f5f83601f84011261089f5761089e61087e565b5b8235905067ffffffffffffffff8111156108bc576108bb610882565b5b6020830191508360018202830111156108d8576108d7610886565b5b9250929050565b5f5f5f5f5f608086880312156108f8576108f7610758565b5b5f61090588828901610810565b95505060206109168882890161086a565b94505060406109278882890161086a565b935050606086013567ffffffffffffffff8111156109485761094761075c565b5b6109548882890161088a565b92509250509295509295909350565b5f81519050919050565b5f82825260208201905092915050565b8281835e5f83830152505050565b5f601f19601f8301169050919050565b5f6109a582610963565b6109af818561096d565b93506109bf81856020860161097d565b6109c88161098b565b840191505092915050565b5f6040820190506109e65f8301856107c9565b81810360208301526109f8818461099b565b90509392505050565b5f5f5f5f60608587031215610a1957610a18610758565b5b5f610a2687828801610810565b9450506020610a378782880161086a565b935050604085013567ffffffffffffffff811115610a5857610a5761075c565b5b610a648782880161088a565b925092505092959194509250565b610a7b81610760565b82525050565b5f602082019050610a945f830184610a72565b92915050565b610aa3816107be565b8114610aad575f5ffd5b50565b5f81519050610abe81610a9a565b92915050565b5f60208284031215610ad957610ad8610758565b5b5f610ae684828501610ab0565b91505092915050565b5f81519050610afd81610854565b92915050565b5f60208284031215610b1857610b17610758565b5b5f610b2584828501610aef565b91505092915050565b828183375f83830152505050565b5f610b47838561096d565b9350610b54838584610b2e565b610b5d8361098b565b840190509392505050565b5f6020820190508181035f830152610b81818486610b3c565b90509392505050565b5f81905092915050565b5f610b9f8385610b8a565b9350610bac838584610b2e565b82840190509392505050565b5f610bc4828486610b94565b91508190509392505050565b610bd981610843565b82525050565b5f604082019050610bf25f830185610bd0565b8181036020830152610c04818461099b565b90509392505050565b610c16816107f1565b82525050565b5f608082019050610c2f5f830188610c0d565b610c3c6020830187610bd0565b610c496040830186610bd0565b8181036060830152610c5c818486610b3c565b90509695505050505050565b5f819050602082019050919050565b5f7fffffffffffffffffffffffffffffffffffffffff00000000000000000000000082169050919050565b5f610cad8251610c77565b80915050919050565b5f82821b905092915050565b5f610ccc82610963565b82610cd684610c68565b9050610ce181610ca2565b92506014821015610d2157610d1c7fffffffffffffffffffffffffffffffffffffffff00000000000000000000000083601403600802610cb6565b831692505b5050919050565b5f819050919050565b610d42610d3d826107f1565b610d28565b82525050565b5f610d538284610d31565b60208201915081905092915050565b5f606082019050610d755f830186610c0d565b610d826020830185610bd0565b8181036040830152610d94818461099b565b9050949350505050565b5f81519050610dac81610769565b92915050565b5f60208284031215610dc757610dc6610758565b5b5f610dd484828501610d9e565b91505092915050565b5f82905092915050565b5f7fffffffff0000000000000000000000000000000000000000000000000000000082169050919050565b5f610e1d8383610ddd565b82610e288135610de7565b92506004821015610e6857610e637fffffffff0000000000000000000000000000000000000000000000000000000083600403600802610cb6565b831692505b505092915050565b610e7981610de7565b82525050565b5f606082019050610e925f830187610e70565b8181036020830152610ea5818587610b3c565b9050610eb46040830184610a72565b9594505050505056fea2646970667358221220a6acaac603698cf5f66cd4f5c61428e50cb2a498eb89d61a4a33692037cbc7b764736f6c634300081c0033","linkReferences":{}},"methodIdentifiers":{"automate(uint256,address,bytes)":"ac002b4f","executeRemoteCall(uint256,address,address,bytes)":"419053c9","executedMessages(bytes32)":"cd2abd66","isMessageExecuted(bytes32)":"396c16b7","waitForMessage(bytes32)":"50a691c9"},"id":19}