{"abi":[{"type":"function","name":"computeCreate2Address","inputs":[{"name":"salt","type":"bytes32","internalType":"bytes32"},{"name":"initCodeHash","type":"bytes32","internalType":"bytes32"}],"outputs":[{"name":"computedAddress","type":"address","internalType":"address"}],"stateMutability":"view"},{"type":"function","name":"computeCreate2Address","inputs":[{"name":"salt","type":"bytes32","internalType":"bytes32"},{"name":"initCodeHash","type":"bytes32","internalType":"bytes32"},{"name":"deployer","type":"address","internalType":"address"}],"outputs":[{"name":"computedAddress","type":"address","internalType":"address"}],"stateMutability":"pure"},{"type":"function","name":"computeCreate3Address","inputs":[{"name":"salt","type":"bytes32","internalType":"bytes32"},{"name":"deployer","type":"address","internalType":"address"}],"outputs":[{"name":"computedAddress","type":"address","internalType":"address"}],"stateMutability":"pure"},{"type":"function","name":"computeCreate3Address","inputs":[{"name":"salt","type":"bytes32","internalType":"bytes32"}],"outputs":[{"name":"computedAddress","type":"address","internalType":"address"}],"stateMutability":"view"},{"type":"function","name":"computeCreateAddress","inputs":[{"name":"nonce","type":"uint256","internalType":"uint256"}],"outputs":[{"name":"computedAddress","type":"address","internalType":"address"}],"stateMutability":"view"},{"type":"function","name":"computeCreateAddress","inputs":[{"name":"deployer","type":"address","internalType":"address"},{"name":"nonce","type":"uint256","internalType":"uint256"}],"outputs":[{"name":"computedAddress","type":"address","internalType":"address"}],"stateMutability":"view"},{"type":"function","name":"deployCreate","inputs":[{"name":"initCode","type":"bytes","internalType":"bytes"}],"outputs":[{"name":"newContract","type":"address","internalType":"address"}],"stateMutability":"payable"},{"type":"function","name":"deployCreate2","inputs":[{"name":"salt","type":"bytes32","internalType":"bytes32"},{"name":"initCode","type":"bytes","internalType":"bytes"}],"outputs":[{"name":"newContract","type":"address","internalType":"address"}],"stateMutability":"payable"},{"type":"function","name":"deployCreate2","inputs":[{"name":"initCode","type":"bytes","internalType":"bytes"}],"outputs":[{"name":"newContract","type":"address","internalType":"address"}],"stateMutability":"payable"},{"type":"function","name":"deployCreate2AndInit","inputs":[{"name":"salt","type":"bytes32","internalType":"bytes32"},{"name":"initCode","type":"bytes","internalType":"bytes"},{"name":"data","type":"bytes","internalType":"bytes"},{"name":"values","type":"tuple","internalType":"struct CreateX.Values","components":[{"name":"constructorAmount","type":"uint256","internalType":"uint256"},{"name":"initCallAmount","type":"uint256","internalType":"uint256"}]},{"name":"refundAddress","type":"address","internalType":"address"}],"outputs":[{"name":"newContract","type":"address","internalType":"address"}],"stateMutability":"payable"},{"type":"function","name":"deployCreate2AndInit","inputs":[{"name":"initCode","type":"bytes","internalType":"bytes"},{"name":"data","type":"bytes","internalType":"bytes"},{"name":"values","type":"tuple","internalType":"struct CreateX.Values","components":[{"name":"constructorAmount","type":"uint256","internalType":"uint256"},{"name":"initCallAmount","type":"uint256","internalType":"uint256"}]}],"outputs":[{"name":"newContract","type":"address","internalType":"address"}],"stateMutability":"payable"},{"type":"function","name":"deployCreate2AndInit","inputs":[{"name":"initCode","type":"bytes","internalType":"bytes"},{"name":"data","type":"bytes","internalType":"bytes"},{"name":"values","type":"tuple","internalType":"struct CreateX.Values","components":[{"name":"constructorAmount","type":"uint256","internalType":"uint256"},{"name":"initCallAmount","type":"uint256","internalType":"uint256"}]},{"name":"refundAddress","type":"address","internalType":"address"}],"outputs":[{"name":"newContract","type":"address","internalType":"address"}],"stateMutability":"payable"},{"type":"function","name":"deployCreate2AndInit","inputs":[{"name":"salt","type":"bytes32","internalType":"bytes32"},{"name":"initCode","type":"bytes","internalType":"bytes"},{"name":"data","type":"bytes","internalType":"bytes"},{"name":"values","type":"tuple","internalType":"struct CreateX.Values","components":[{"name":"constructorAmount","type":"uint256","internalType":"uint256"},{"name":"initCallAmount","type":"uint256","internalType":"uint256"}]}],"outputs":[{"name":"newContract","type":"address","internalType":"address"}],"stateMutability":"payable"},{"type":"function","name":"deployCreate2Clone","inputs":[{"name":"salt","type":"bytes32","internalType":"bytes32"},{"name":"implementation","type":"address","internalType":"address"},{"name":"data","type":"bytes","internalType":"bytes"}],"outputs":[{"name":"proxy","type":"address","internalType":"address"}],"stateMutability":"payable"},{"type":"function","name":"deployCreate2Clone","inputs":[{"name":"implementation","type":"address","internalType":"address"},{"name":"data","type":"bytes","internalType":"bytes"}],"outputs":[{"name":"proxy","type":"address","internalType":"address"}],"stateMutability":"payable"},{"type":"function","name":"deployCreate3","inputs":[{"name":"initCode","type":"bytes","internalType":"bytes"}],"outputs":[{"name":"newContract","type":"address","internalType":"address"}],"stateMutability":"payable"},{"type":"function","name":"deployCreate3","inputs":[{"name":"salt","type":"bytes32","internalType":"bytes32"},{"name":"initCode","type":"bytes","internalType":"bytes"}],"outputs":[{"name":"newContract","type":"address","internalType":"address"}],"stateMutability":"payable"},{"type":"function","name":"deployCreate3AndInit","inputs":[{"name":"salt","type":"bytes32","internalType":"bytes32"},{"name":"initCode","type":"bytes","internalType":"bytes"},{"name":"data","type":"bytes","internalType":"bytes"},{"name":"values","type":"tuple","internalType":"struct CreateX.Values","components":[{"name":"constructorAmount","type":"uint256","internalType":"uint256"},{"name":"initCallAmount","type":"uint256","internalType":"uint256"}]}],"outputs":[{"name":"newContract","type":"address","internalType":"address"}],"stateMutability":"payable"},{"type":"function","name":"deployCreate3AndInit","inputs":[{"name":"initCode","type":"bytes","internalType":"bytes"},{"name":"data","type":"bytes","internalType":"bytes"},{"name":"values","type":"tuple","internalType":"struct CreateX.Values","components":[{"name":"constructorAmount","type":"uint256","internalType":"uint256"},{"name":"initCallAmount","type":"uint256","internalType":"uint256"}]}],"outputs":[{"name":"newContract","type":"address","internalType":"address"}],"stateMutability":"payable"},{"type":"function","name":"deployCreate3AndInit","inputs":[{"name":"salt","type":"bytes32","internalType":"bytes32"},{"name":"initCode","type":"bytes","internalType":"bytes"},{"name":"data","type":"bytes","internalType":"bytes"},{"name":"values","type":"tuple","internalType":"struct CreateX.Values","components":[{"name":"constructorAmount","type":"uint256","internalType":"uint256"},{"name":"initCallAmount","type":"uint256","internalType":"uint256"}]},{"name":"refundAddress","type":"address","internalType":"address"}],"outputs":[{"name":"newContract","type":"address","internalType":"address"}],"stateMutability":"payable"},{"type":"function","name":"deployCreate3AndInit","inputs":[{"name":"initCode","type":"bytes","internalType":"bytes"},{"name":"data","type":"bytes","internalType":"bytes"},{"name":"values","type":"tuple","internalType":"struct CreateX.Values","components":[{"name":"constructorAmount","type":"uint256","internalType":"uint256"},{"name":"initCallAmount","type":"uint256","internalType":"uint256"}]},{"name":"refundAddress","type":"address","internalType":"address"}],"outputs":[{"name":"newContract","type":"address","internalType":"address"}],"stateMutability":"payable"},{"type":"function","name":"deployCreateAndInit","inputs":[{"name":"initCode","type":"bytes","internalType":"bytes"},{"name":"data","type":"bytes","internalType":"bytes"},{"name":"values","type":"tuple","internalType":"struct CreateX.Values","components":[{"name":"constructorAmount","type":"uint256","internalType":"uint256"},{"name":"initCallAmount","type":"uint256","internalType":"uint256"}]}],"outputs":[{"name":"newContract","type":"address","internalType":"address"}],"stateMutability":"payable"},{"type":"function","name":"deployCreateAndInit","inputs":[{"name":"initCode","type":"bytes","internalType":"bytes"},{"name":"data","type":"bytes","internalType":"bytes"},{"name":"values","type":"tuple","internalType":"struct CreateX.Values","components":[{"name":"constructorAmount","type":"uint256","internalType":"uint256"},{"name":"initCallAmount","type":"uint256","internalType":"uint256"}]},{"name":"refundAddress","type":"address","internalType":"address"}],"outputs":[{"name":"newContract","type":"address","internalType":"address"}],"stateMutability":"payable"},{"type":"function","name":"deployCreateClone","inputs":[{"name":"implementation","type":"address","internalType":"address"},{"name":"data","type":"bytes","internalType":"bytes"}],"outputs":[{"name":"proxy","type":"address","internalType":"address"}],"stateMutability":"payable"},{"type":"event","name":"ContractCreation","inputs":[{"name":"newContract","type":"address","indexed":true,"internalType":"address"},{"name":"salt","type":"bytes32","indexed":true,"internalType":"bytes32"}],"anonymous":false},{"type":"event","name":"ContractCreation","inputs":[{"name":"newContract","type":"address","indexed":true,"internalType":"address"}],"anonymous":false},{"type":"event","name":"Create3ProxyContractCreation","inputs":[{"name":"newContract","type":"address","indexed":true,"internalType":"address"},{"name":"salt","type":"bytes32","indexed":true,"internalType":"bytes32"}],"anonymous":false},{"type":"error","name":"FailedContractCreation","inputs":[{"name":"emitter","type":"address","internalType":"address"}]},{"type":"error","name":"FailedContractInitialisation","inputs":[{"name":"emitter","type":"address","internalType":"address"},{"name":"revertData","type":"bytes","internalType":"bytes"}]},{"type":"error","name":"FailedEtherTransfer","inputs":[{"name":"emitter","type":"address","internalType":"address"},{"name":"revertData","type":"bytes","internalType":"bytes"}]},{"type":"error","name":"InvalidNonceValue","inputs":[{"name":"emitter","type":"address","internalType":"address"}]},{"type":"error","name":"InvalidSalt","inputs":[{"name":"emitter","type":"address","internalType":"address"}]}],"bytecode":{"object":"0x60a06040523073ffffffffffffffffffffffffffffffffffffffff1660809073ffffffffffffffffffffffffffffffffffffffff16815250348015610042575f80fd5b5060805161350d6101035f395f81816107b2015281816108d901528181610998015281816109f601528181610d2d01528181610e2801528181610e8801528181610edc01528181610f6d0152818161105c015281816112a40152818161130401528181611358015281816113e9015281816115220152818161170101528181611761015281816117b5015281816118460152818161199f01528181611c0c01528181611d3401528181611e2e01528181611ef30152611fb5015261350d5ff3fe608060405260043610610149575f3560e01c806381503da1116100b5578063d323826a1161006e578063d323826a146104e9578063ddda0acb14610525578063e437252a14610555578063e96deee414610585578063f5745aba146105b5578063f9664498146105e557610149565b806381503da1146103bd578063890c283b146103ed57806398e81077146104295780639c36a28614610459578063a7db93f214610489578063c3fe107b146104b957610149565b80632f990e3f116101075780632f990e3f1461027957806331a7c8c8146102a957806342d654fc146102d95780636cec25361461031557806374637a7a146103515780637f5653601461038d57610149565b8062d84acb1461014d578063263076681461017d57806326a32fc7146101ad57806327fe1822146101dd5780632852527a1461020d57806328ddd0461461023d575b5f80fd5b610167600480360381019061016291906125ff565b610615565b60405161017491906126da565b60405180910390f35b610197600480360381019061019291906126f3565b61062d565b6040516101a491906126da565b60405180910390f35b6101c760048036038101906101c2919061274d565b610699565b6040516101d491906126da565b60405180910390f35b6101f760048036038101906101f2919061274d565b6106b2565b60405161020491906126da565b60405180910390f35b610227600480360381019061022291906127be565b61070e565b60405161023491906126da565b60405180910390f35b348015610248575f80fd5b50610263600480360381019061025e919061282a565b6108d3565b60405161027091906126da565b60405180910390f35b610293600480360381019061028e9190612855565b610905565b6040516102a091906126da565b60405180910390f35b6102c360048036038101906102be9190612855565b610923565b6040516102d091906126da565b60405180910390f35b3480156102e4575f80fd5b506102ff60048036038101906102fa91906128dd565b610939565b60405161030c91906126da565b60405180910390f35b348015610320575f80fd5b5061033b6004803603810190610336919061291b565b610991565b60405161034891906126da565b60405180910390f35b34801561035c575f80fd5b5061037760048036038101906103729190612946565b6109c3565b60405161038491906126da565b60405180910390f35b6103a760048036038101906103a2919061274d565b610cf1565b6040516103b491906126da565b60405180910390f35b6103d760048036038101906103d29190612984565b610d0a565b6040516103e491906126da565b60405180910390f35b3480156103f8575f80fd5b50610413600480360381019061040e91906129de565b610d25565b60405161042091906126da565b60405180910390f35b610443600480360381019061043e9190612a1c565b610d59565b60405161045091906126da565b60405180910390f35b610473600480360381019061046e91906126f3565b610fd5565b60405161048091906126da565b60405180910390f35b6104a3600480360381019061049e9190612ab8565b6111c7565b6040516104b091906126da565b60405180910390f35b6104d360048036038101906104ce9190612855565b611453565b6040516104e091906126da565b60405180910390f35b3480156104f4575f80fd5b5061050f600480360381019061050a9190612b67565b611471565b60405161051c91906126da565b60405180910390f35b61053f600480360381019061053a9190612ab8565b61149b565b60405161054c91906126da565b60405180910390f35b61056f600480360381019061056a9190612a1c565b6118b2565b60405161057c91906126da565b60405180910390f35b61059f600480360381019061059a91906125ff565b6118d1565b6040516105ac91906126da565b60405180910390f35b6105cf60048036038101906105ca9190612a1c565b6118e9565b6040516105dc91906126da565b60405180910390f35b6105ff60048036038101906105fa9190612984565b611908565b60405161060c91906126da565b60405180910390f35b5f610623858585853361149b565b9050949350505050565b5f8061063884611abd565b90508083516020850134f5915061064e82611dd7565b808273ffffffffffffffffffffffffffffffffffffffff167fb8fda7e00c6b06a2b54e58521bc5894fee35f1090e5a3bb6390bfe2b98b497f760405160405180910390a35092915050565b5f6106ab6106a5611e8c565b8361062d565b9050919050565b5f81516020830134f090506106c681611dd7565b8073ffffffffffffffffffffffffffffffffffffffff167f4db17dd5e4732fb6da34a148104a592783ca119a1e7bb8829eba6cbadef0b51160405160405180910390a2919050565b5f8061071985611abd565b90505f8460601b90506040517f3d602d80600a3d3981f3363d3d373d3d3d363d7300000000000000000000000081528160148201527f5af43d82803e903d91602b57fd5bf300000000000000000000000000000000006028820152826037825ff59350505f73ffffffffffffffffffffffffffffffffffffffff168373ffffffffffffffffffffffffffffffffffffffff160361080d577f00000000000000000000000000000000000000000000000000000000000000006040517fc05cee7a00000000000000000000000000000000000000000000000000000000815260040161080491906126da565b60405180910390fd5b818373ffffffffffffffffffffffffffffffffffffffff167fb8fda7e00c6b06a2b54e58521bc5894fee35f1090e5a3bb6390bfe2b98b497f760405160405180910390a35f808473ffffffffffffffffffffffffffffffffffffffff1634876040516108799190612c23565b5f6040518083038185875af1925050503d805f81146108b3576040519150601f19603f3d011682016040523d82523d5f602084013e6108b8565b606091505b50915091506108c8828289611ec9565b505050509392505050565b5f6108fe7f0000000000000000000000000000000000000000000000000000000000000000836109c3565b9050919050565b5f61091a610911611e8c565b8585853361149b565b90509392505050565b5f61093084848433610d59565b90509392505050565b5f604051825f5260ff600b53836020527f21c35dbe1b344a2488cf3321d6ce542f8e9f305544ff09e4993a62319a497c1f6040526055600b206014528060405261d6945f5260016034536017601e2091505092915050565b5f6109bc827f0000000000000000000000000000000000000000000000000000000000000000610939565b9050919050565b5f60605f609460f81b9050600167ffffffffffffffff6109e39190612c79565b67ffffffffffffffff16841115610a51577f00000000000000000000000000000000000000000000000000000000000000006040517f3c55ab3b000000000000000000000000000000000000000000000000000000008152600401610a4891906126da565b60405180910390fd5b5f8403610a8d5760d660f81b8186608060f81b604051602001610a779493929190612d44565b6040516020818303038152906040529150610cdd565b607f8411610ac65760d660f81b818686604051602001610ab09493929190612dd1565b6040516020818303038152906040529150610cdc565b60ff80168411610b075760d760f81b8186608160f81b87604051602001610af1959493929190612e1e565b6040516020818303038152906040529150610cdb565b61ffff80168411610b495760d860f81b8186608260f81b87604051602001610b33959493929190612ebd565b6040516020818303038152906040529150610cda565b62ffffff80168411610b8c5760d960f81b8186608360f81b87604051602001610b76959493929190612f5d565b6040516020818303038152906040529150610cd9565b63ffffffff80168411610bd05760da60f81b8186608460f81b87604051602001610bba959493929190612ffe565b6040516020818303038152906040529150610cd8565b64ffffffffff80168411610c155760db60f81b8186608560f81b87604051602001610bff9594939291906130a0565b6040516020818303038152906040529150610cd7565b65ffffffffffff80168411610c5b5760dc60f81b8186608660f81b87604051602001610c45959493929190613143565b6040516020818303038152906040529150610cd6565b66ffffffffffffff80168411610ca25760dd60f81b8186608760f81b87604051602001610c8c9594939291906131e7565b6040516020818303038152906040529150610cd5565b60de60f81b8186608860f81b87604051602001610cc3959493929190613279565b60405160208183030381529060405291505b5b5b5b5b5b5b5b5b81805190602001205f1c9250505092915050565b5f610d03610cfd611e8c565b83610fd5565b9050919050565b5f610d1d610d16611e8c565b848461070e565b905092915050565b5f610d5183837f0000000000000000000000000000000000000000000000000000000000000000611471565b905092915050565b5f8451602086018451f09050610d6e81611dd7565b8073ffffffffffffffffffffffffffffffffffffffff167f4db17dd5e4732fb6da34a148104a592783ca119a1e7bb8829eba6cbadef0b51160405160405180910390a25f808273ffffffffffffffffffffffffffffffffffffffff16856020015187604051610ddd9190612c23565b5f6040518083038185875af1925050503d805f8114610e17576040519150601f19603f3d011682016040523d82523d5f602084013e610e1c565b606091505b509150915081610e85577f0000000000000000000000000000000000000000000000000000000000000000816040517fa57ca239000000000000000000000000000000000000000000000000000000008152600401610e7c92919061331f565b60405180910390fd5b5f7f000000000000000000000000000000000000000000000000000000000000000073ffffffffffffffffffffffffffffffffffffffff163114610fcb578373ffffffffffffffffffffffffffffffffffffffff167f000000000000000000000000000000000000000000000000000000000000000073ffffffffffffffffffffffffffffffffffffffff1631604051610f1e90613370565b5f6040518083038185875af1925050503d805f8114610f58576040519150601f19603f3d011682016040523d82523d5f602084013e610f5d565b606091505b50809250819350505081610fca577f0000000000000000000000000000000000000000000000000000000000000000816040517fc2b3f445000000000000000000000000000000000000000000000000000000008152600401610fc192919061331f565b60405180910390fd5b5b5050949350505050565b5f80610fe084611abd565b90505f6040518060400160405280601081526020017f67363d3d37363d34f03d5260086018f30000000000000000000000000000000081525090505f828251602084015ff590505f73ffffffffffffffffffffffffffffffffffffffff168173ffffffffffffffffffffffffffffffffffffffff16036110b7577f00000000000000000000000000000000000000000000000000000000000000006040517fc05cee7a0000000000000000000000000000000000000000000000000000000081526004016110ae91906126da565b60405180910390fd5b828173ffffffffffffffffffffffffffffffffffffffff167f2feea65dd4e9f9cbd86b74b7734210c59a1b2981b5b137bd0ee3e208200c906760405160405180910390a361110483610991565b93505f8173ffffffffffffffffffffffffffffffffffffffff16348760405161112d9190612c23565b5f6040518083038185875af1925050503d805f8114611167576040519150601f19603f3d011682016040523d82523d5f602084013e61116c565b606091505b5050905061117a8186611f55565b8473ffffffffffffffffffffffffffffffffffffffff167f4db17dd5e4732fb6da34a148104a592783ca119a1e7bb8829eba6cbadef0b51160405160405180910390a25050505092915050565b5f806111d287611abd565b9050808651602088018651f591506111e982611dd7565b808273ffffffffffffffffffffffffffffffffffffffff167fb8fda7e00c6b06a2b54e58521bc5894fee35f1090e5a3bb6390bfe2b98b497f760405160405180910390a35f808373ffffffffffffffffffffffffffffffffffffffff168660200151886040516112599190612c23565b5f6040518083038185875af1925050503d805f8114611293576040519150601f19603f3d011682016040523d82523d5f602084013e611298565b606091505b509150915081611301577f0000000000000000000000000000000000000000000000000000000000000000816040517fa57ca2390000000000000000000000000000000000000000000000000000000081526004016112f892919061331f565b60405180910390fd5b5f7f000000000000000000000000000000000000000000000000000000000000000073ffffffffffffffffffffffffffffffffffffffff163114611447578473ffffffffffffffffffffffffffffffffffffffff167f000000000000000000000000000000000000000000000000000000000000000073ffffffffffffffffffffffffffffffffffffffff163160405161139a90613370565b5f6040518083038185875af1925050503d805f81146113d4576040519150601f19603f3d011682016040523d82523d5f602084013e6113d9565b606091505b50809250819350505081611446577f0000000000000000000000000000000000000000000000000000000000000000816040517fc2b3f44500000000000000000000000000000000000000000000000000000000815260040161143d92919061331f565b60405180910390fd5b5b50505095945050505050565b5f61146861145f611e8c565b858585336111c7565b90509392505050565b5f604051836040820152846020820152828152600b810160ff815360558120925050509392505050565b5f806114a687611abd565b90505f6040518060400160405280601081526020017f67363d3d37363d34f03d5260086018f30000000000000000000000000000000081525090505f828251602084015ff590505f73ffffffffffffffffffffffffffffffffffffffff168173ffffffffffffffffffffffffffffffffffffffff160361157d577f00000000000000000000000000000000000000000000000000000000000000006040517fc05cee7a00000000000000000000000000000000000000000000000000000000815260040161157491906126da565b60405180910390fd5b828173ffffffffffffffffffffffffffffffffffffffff167f2feea65dd4e9f9cbd86b74b7734210c59a1b2981b5b137bd0ee3e208200c906760405160405180910390a36115ca83610991565b93505f8173ffffffffffffffffffffffffffffffffffffffff16875f01518a6040516115f69190612c23565b5f6040518083038185875af1925050503d805f8114611630576040519150601f19603f3d011682016040523d82523d5f602084013e611635565b606091505b505090506116438186611f55565b8473ffffffffffffffffffffffffffffffffffffffff167f4db17dd5e4732fb6da34a148104a592783ca119a1e7bb8829eba6cbadef0b51160405160405180910390a260608573ffffffffffffffffffffffffffffffffffffffff1688602001518a6040516116b29190612c23565b5f6040518083038185875af1925050503d805f81146116ec576040519150601f19603f3d011682016040523d82523d5f602084013e6116f1565b606091505b5080925081935050508161175e577f0000000000000000000000000000000000000000000000000000000000000000816040517fa57ca23900000000000000000000000000000000000000000000000000000000815260040161175592919061331f565b60405180910390fd5b5f7f000000000000000000000000000000000000000000000000000000000000000073ffffffffffffffffffffffffffffffffffffffff1631146118a4578673ffffffffffffffffffffffffffffffffffffffff167f000000000000000000000000000000000000000000000000000000000000000073ffffffffffffffffffffffffffffffffffffffff16316040516117f790613370565b5f6040518083038185875af1925050503d805f8114611831576040519150601f19603f3d011682016040523d82523d5f602084013e611836565b606091505b508092508193505050816118a3577f0000000000000000000000000000000000000000000000000000000000000000816040517fc2b3f44500000000000000000000000000000000000000000000000000000000815260040161189a92919061331f565b60405180910390fd5b5b505050505095945050505050565b5f6118c76118be611e8c565b868686866111c7565b9050949350505050565b5f6118df85858585336111c7565b9050949350505050565b5f6118fe6118f5611e8c565b8686868661149b565b9050949350505050565b5f808360601b90506040517f3d602d80600a3d3981f3363d3d373d3d3d363d7300000000000000000000000081528160148201527f5af43d82803e903d91602b57fd5bf3000000000000000000000000000000000060288201526037815ff09250505f73ffffffffffffffffffffffffffffffffffffffff168273ffffffffffffffffffffffffffffffffffffffff16036119fa577f00000000000000000000000000000000000000000000000000000000000000006040517fc05cee7a0000000000000000000000000000000000000000000000000000000081526004016119f191906126da565b60405180910390fd5b8173ffffffffffffffffffffffffffffffffffffffff167f4db17dd5e4732fb6da34a148104a592783ca119a1e7bb8829eba6cbadef0b51160405160405180910390a25f808373ffffffffffffffffffffffffffffffffffffffff163486604051611a659190612c23565b5f6040518083038185875af1925050503d805f8114611a9f576040519150601f19603f3d011682016040523d82523d5f602084013e611aa4565b606091505b5091509150611ab4828288611ec9565b50505092915050565b5f805f611ac984612014565b915091505f6002811115611ae057611adf613384565b5b826002811115611af357611af2613384565b5b148015611b2357505f6002811115611b0e57611b0d613384565b5b816002811115611b2157611b20613384565b5b145b15611b5a57334685604051602001611b3d939291906133cf565b604051602081830303815290604052805190602001209250611dd0565b5f6002811115611b6d57611b6c613384565b5b826002811115611b8057611b7f613384565b5b148015611bb1575060016002811115611b9c57611b9b613384565b5b816002811115611baf57611bae613384565b5b145b15611bdf57611bd83373ffffffffffffffffffffffffffffffffffffffff165f1b856123e7565b9250611dcf565b5f6002811115611bf257611bf1613384565b5b826002811115611c0557611c04613384565b5b03611c67577f00000000000000000000000000000000000000000000000000000000000000006040517f13b3a2a1000000000000000000000000000000000000000000000000000000008152600401611c5e91906126da565b60405180910390fd5b60016002811115611c7b57611c7a613384565b5b826002811115611c8e57611c8d613384565b5b148015611cbe57505f6002811115611ca957611ca8613384565b5b816002811115611cbc57611cbb613384565b5b145b15611cd657611ccf465f1b856123e7565b9250611dce565b60016002811115611cea57611ce9613384565b5b826002811115611cfd57611cfc613384565b5b148015611d2d5750600280811115611d1857611d17613384565b5b816002811115611d2b57611d2a613384565b5b145b15611d8f577f00000000000000000000000000000000000000000000000000000000000000006040517f13b3a2a1000000000000000000000000000000000000000000000000000000008152600401611d8691906126da565b60405180910390fd5b611d97611e8c565b8403611da35783611dcb565b83604051602001611db49190613404565b604051602081830303815290604052805190602001205b92505b5b5b5050919050565b5f73ffffffffffffffffffffffffffffffffffffffff168173ffffffffffffffffffffffffffffffffffffffff161480611e2757505f8173ffffffffffffffffffffffffffffffffffffffff163b145b15611e89577f00000000000000000000000000000000000000000000000000000000000000006040517fc05cee7a000000000000000000000000000000000000000000000000000000008152600401611e8091906126da565b60405180910390fd5b50565b5f6020430340414342444633604051602001611eae979695949392919061343d565b60405160208183030381529060405280519060200120905090565b821580611eec57505f8173ffffffffffffffffffffffffffffffffffffffff163b145b15611f50577f0000000000000000000000000000000000000000000000000000000000000000826040517fa57ca239000000000000000000000000000000000000000000000000000000008152600401611f4792919061331f565b60405180910390fd5b505050565b811580611f8d57505f73ffffffffffffffffffffffffffffffffffffffff168173ffffffffffffffffffffffffffffffffffffffff16145b80611fae57505f8173ffffffffffffffffffffffffffffffffffffffff163b145b15612010577f00000000000000000000000000000000000000000000000000000000000000006040517fc05cee7a00000000000000000000000000000000000000000000000000000000815260040161200791906126da565b60405180910390fd5b5050565b5f803373ffffffffffffffffffffffffffffffffffffffff168360601c73ffffffffffffffffffffffffffffffffffffffff161480156120ac57507f010000000000000000000000000000000000000000000000000000000000000083601460208110612084576120836134aa565b5b1a60f81b7effffffffffffffffffffffffffffffffffffffffffffffffffffffffffffff1916145b156120c0575f8080925081935050506123e2565b3373ffffffffffffffffffffffffffffffffffffffff168360601c73ffffffffffffffffffffffffffffffffffffffff1614801561213657505f8360146020811061210e5761210d6134aa565b5b1a60f81b7effffffffffffffffffffffffffffffffffffffffffffffffffffffffffffff1916145b1561214b575f600180925081935050506123e1565b3373ffffffffffffffffffffffffffffffffffffffff168360601c73ffffffffffffffffffffffffffffffffffffffff1603612191575f600280925081935050506123e0565b5f73ffffffffffffffffffffffffffffffffffffffff168360601c73ffffffffffffffffffffffffffffffffffffffff1614801561222757507f0100000000000000000000000000000000000000000000000000000000000000836014602081106121ff576121fe6134aa565b5b1a60f81b7effffffffffffffffffffffffffffffffffffffffffffffffffffffffffffff1916145b1561223c5760015f80925081935050506123df565b5f73ffffffffffffffffffffffffffffffffffffffff168360601c73ffffffffffffffffffffffffffffffffffffffff161480156122b257505f8360146020811061228a576122896134aa565b5b1a60f81b7effffffffffffffffffffffffffffffffffffffffffffffffffffffffffffff1916145b156122c75760018080925081935050506123de565b5f73ffffffffffffffffffffffffffffffffffffffff168360601c73ffffffffffffffffffffffffffffffffffffffff160361230e576001600280925081935050506123dd565b7f010000000000000000000000000000000000000000000000000000000000000083601460208110612343576123426134aa565b5b1a60f81b7effffffffffffffffffffffffffffffffffffffffffffffffffffffffffffff19160361237e5760025f80925081935050506123dc565b5f83601460208110612393576123926134aa565b5b1a60f81b7effffffffffffffffffffffffffffffffffffffffffffffffffffffffffffff1916036123cf576002600180925081935050506123db565b60028080925081935050505b5b5b5b5b5b5b5b915091565b5f825f528160205260405f20905092915050565b5f604051905090565b5f80fd5b5f80fd5b5f819050919050565b61241e8161240c565b8114612428575f80fd5b50565b5f8135905061243981612415565b92915050565b5f80fd5b5f80fd5b5f601f19601f8301169050919050565b7f4e487b71000000000000000000000000000000000000000000000000000000005f52604160045260245ffd5b61248d82612447565b810181811067ffffffffffffffff821117156124ac576124ab612457565b5b80604052505050565b5f6124be6123fb565b90506124ca8282612484565b919050565b5f67ffffffffffffffff8211156124e9576124e8612457565b5b6124f282612447565b9050602081019050919050565b828183375f83830152505050565b5f61251f61251a846124cf565b6124b5565b90508281526020810184848401111561253b5761253a612443565b5b6125468482856124ff565b509392505050565b5f82601f8301126125625761256161243f565b5b813561257284826020860161250d565b91505092915050565b5f80fd5b5f819050919050565b6125918161257f565b811461259b575f80fd5b50565b5f813590506125ac81612588565b92915050565b5f604082840312156125c7576125c661257b565b5b6125d160406124b5565b90505f6125e08482850161259e565b5f8301525060206125f38482850161259e565b60208301525092915050565b5f805f8060a0858703121561261757612616612404565b5b5f6126248782880161242b565b945050602085013567ffffffffffffffff81111561264557612644612408565b5b6126518782880161254e565b935050604085013567ffffffffffffffff81111561267257612671612408565b5b61267e8782880161254e565b925050606061268f878288016125b2565b91505092959194509250565b5f73ffffffffffffffffffffffffffffffffffffffff82169050919050565b5f6126c48261269b565b9050919050565b6126d4816126ba565b82525050565b5f6020820190506126ed5f8301846126cb565b92915050565b5f806040838503121561270957612708612404565b5b5f6127168582860161242b565b925050602083013567ffffffffffffffff81111561273757612736612408565b5b6127438582860161254e565b9150509250929050565b5f6020828403121561276257612761612404565b5b5f82013567ffffffffffffffff81111561277f5761277e612408565b5b61278b8482850161254e565b91505092915050565b61279d816126ba565b81146127a7575f80fd5b50565b5f813590506127b881612794565b92915050565b5f805f606084860312156127d5576127d4612404565b5b5f6127e28682870161242b565b93505060206127f3868287016127aa565b925050604084013567ffffffffffffffff81111561281457612813612408565b5b6128208682870161254e565b9150509250925092565b5f6020828403121561283f5761283e612404565b5b5f61284c8482850161259e565b91505092915050565b5f805f6080848603121561286c5761286b612404565b5b5f84013567ffffffffffffffff81111561288957612888612408565b5b6128958682870161254e565b935050602084013567ffffffffffffffff8111156128b6576128b5612408565b5b6128c28682870161254e565b92505060406128d3868287016125b2565b9150509250925092565b5f80604083850312156128f3576128f2612404565b5b5f6129008582860161242b565b9250506020612911858286016127aa565b9150509250929050565b5f602082840312156129305761292f612404565b5b5f61293d8482850161242b565b91505092915050565b5f806040838503121561295c5761295b612404565b5b5f612969858286016127aa565b925050602061297a8582860161259e565b9150509250929050565b5f806040838503121561299a57612999612404565b5b5f6129a7858286016127aa565b925050602083013567ffffffffffffffff8111156129c8576129c7612408565b5b6129d48582860161254e565b9150509250929050565b5f80604083850312156129f4576129f3612404565b5b5f612a018582860161242b565b9250506020612a128582860161242b565b9150509250929050565b5f805f8060a08587031215612a3457612a33612404565b5b5f85013567ffffffffffffffff811115612a5157612a50612408565b5b612a5d8782880161254e565b945050602085013567ffffffffffffffff811115612a7e57612a7d612408565b5b612a8a8782880161254e565b9350506040612a9b878288016125b2565b9250506080612aac878288016127aa565b91505092959194509250565b5f805f805f60c08688031215612ad157612ad0612404565b5b5f612ade8882890161242b565b955050602086013567ffffffffffffffff811115612aff57612afe612408565b5b612b0b8882890161254e565b945050604086013567ffffffffffffffff811115612b2c57612b2b612408565b5b612b388882890161254e565b9350506060612b49888289016125b2565b92505060a0612b5a888289016127aa565b9150509295509295909350565b5f805f60608486031215612b7e57612b7d612404565b5b5f612b8b8682870161242b565b9350506020612b9c8682870161242b565b9250506040612bad868287016127aa565b9150509250925092565b5f81519050919050565b5f81905092915050565b5f5b83811015612be8578082015181840152602081019050612bcd565b5f8484015250505050565b5f612bfd82612bb7565b612c078185612bc1565b9350612c17818560208601612bcb565b80840191505092915050565b5f612c2e8284612bf3565b915081905092915050565b5f67ffffffffffffffff82169050919050565b7f4e487b71000000000000000000000000000000000000000000000000000000005f52601160045260245ffd5b5f612c8382612c39565b9150612c8e83612c39565b9250828203905067ffffffffffffffff811115612cae57612cad612c4c565b5b92915050565b5f7fff0000000000000000000000000000000000000000000000000000000000000082169050919050565b5f819050919050565b612cf9612cf482612cb4565b612cdf565b82525050565b5f8160601b9050919050565b5f612d1582612cff565b9050919050565b5f612d2682612d0b565b9050919050565b612d3e612d39826126ba565b612d1c565b82525050565b5f612d4f8287612ce8565b600182019150612d5f8286612ce8565b600182019150612d6f8285612d2d565b601482019150612d7f8284612ce8565b60018201915081905095945050505050565b5f60ff82169050919050565b5f8160f81b9050919050565b5f612db382612d9d565b9050919050565b612dcb612dc682612d91565b612da9565b82525050565b5f612ddc8287612ce8565b600182019150612dec8286612ce8565b600182019150612dfc8285612d2d565b601482019150612e0c8284612dba565b60018201915081905095945050505050565b5f612e298288612ce8565b600182019150612e398287612ce8565b600182019150612e498286612d2d565b601482019150612e598285612ce8565b600182019150612e698284612dba565b6001820191508190509695505050505050565b5f61ffff82169050919050565b5f8160f01b9050919050565b5f612e9f82612e89565b9050919050565b612eb7612eb282612e7c565b612e95565b82525050565b5f612ec88288612ce8565b600182019150612ed88287612ce8565b600182019150612ee88286612d2d565b601482019150612ef88285612ce8565b600182019150612f088284612ea6565b6002820191508190509695505050505050565b5f62ffffff82169050919050565b5f8160e81b9050919050565b5f612f3f82612f29565b9050919050565b612f57612f5282612f1b565b612f35565b82525050565b5f612f688288612ce8565b600182019150612f788287612ce8565b600182019150612f888286612d2d565b601482019150612f988285612ce8565b600182019150612fa88284612f46565b6003820191508190509695505050505050565b5f63ffffffff82169050919050565b5f8160e01b9050919050565b5f612fe082612fca565b9050919050565b612ff8612ff382612fbb565b612fd6565b82525050565b5f6130098288612ce8565b6001820191506130198287612ce8565b6001820191506130298286612d2d565b6014820191506130398285612ce8565b6001820191506130498284612fe7565b6004820191508190509695505050505050565b5f64ffffffffff82169050919050565b5f8160d81b9050919050565b5f6130828261306c565b9050919050565b61309a6130958261305c565b613078565b82525050565b5f6130ab8288612ce8565b6001820191506130bb8287612ce8565b6001820191506130cb8286612d2d565b6014820191506130db8285612ce8565b6001820191506130eb8284613089565b6005820191508190509695505050505050565b5f65ffffffffffff82169050919050565b5f8160d01b9050919050565b5f6131258261310f565b9050919050565b61313d613138826130fe565b61311b565b82525050565b5f61314e8288612ce8565b60018201915061315e8287612ce8565b60018201915061316e8286612d2d565b60148201915061317e8285612ce8565b60018201915061318e828461312c565b6006820191508190509695505050505050565b5f66ffffffffffffff82169050919050565b5f8160c81b9050919050565b5f6131c9826131b3565b9050919050565b6131e16131dc826131a1565b6131bf565b82525050565b5f6131f28288612ce8565b6001820191506132028287612ce8565b6001820191506132128286612d2d565b6014820191506132228285612ce8565b60018201915061323282846131d0565b6007820191508190509695505050505050565b5f8160c01b9050919050565b5f61325b82613245565b9050919050565b61327361326e82612c39565b613251565b82525050565b5f6132848288612ce8565b6001820191506132948287612ce8565b6001820191506132a48286612d2d565b6014820191506132b48285612ce8565b6001820191506132c48284613262565b6008820191508190509695505050505050565b5f82825260208201905092915050565b5f6132f182612bb7565b6132fb81856132d7565b935061330b818560208601612bcb565b61331481612447565b840191505092915050565b5f6040820190506133325f8301856126cb565b818103602083015261334481846132e7565b90509392505050565b50565b5f61335b5f83612bc1565b91506133668261334d565b5f82019050919050565b5f61337a82613350565b9150819050919050565b7f4e487b71000000000000000000000000000000000000000000000000000000005f52602160045260245ffd5b6133ba8161257f565b82525050565b6133c98161240c565b82525050565b5f6060820190506133e25f8301866126cb565b6133ef60208301856133b1565b6133fc60408301846133c0565b949350505050565b5f6020820190506134175f8301846133c0565b92915050565b5f6134278261269b565b9050919050565b6134378161341d565b82525050565b5f60e0820190506134505f83018a6133c0565b61345d602083018961342e565b61346a60408301886133b1565b61347760608301876133b1565b61348460808301866133b1565b61349160a08301856133b1565b61349e60c08301846126cb565b98975050505050505050565b7f4e487b71000000000000000000000000000000000000000000000000000000005f52603260045260245ffdfea264697066735822122003ceca7a7c2a5be0d3b43f1e100996af2e5f781db62edc0550ca13412a361c4364736f6c63430008170033","linkReferences":{}},"methodIdentifiers":{"computeCreate2Address(bytes32,bytes32)":"890c283b","computeCreate2Address(bytes32,bytes32,address)":"d323826a","computeCreate3Address(bytes32)":"6cec2536","computeCreate3Address(bytes32,address)":"42d654fc","computeCreateAddress(address,uint256)":"74637a7a","computeCreateAddress(uint256)":"28ddd046","deployCreate(bytes)":"27fe1822","deployCreate2(bytes)":"26a32fc7","deployCreate2(bytes32,bytes)":"26307668","deployCreate2AndInit(bytes,bytes,(uint256,uint256))":"c3fe107b","deployCreate2AndInit(bytes,bytes,(uint256,uint256),address)":"e437252a","deployCreate2AndInit(bytes32,bytes,bytes,(uint256,uint256))":"e96deee4","deployCreate2AndInit(bytes32,bytes,bytes,(uint256,uint256),address)":"a7db93f2","deployCreate2Clone(address,bytes)":"81503da1","deployCreate2Clone(bytes32,address,bytes)":"2852527a","deployCreate3(bytes)":"7f565360","deployCreate3(bytes32,bytes)":"9c36a286","deployCreate3AndInit(bytes,bytes,(uint256,uint256))":"2f990e3f","deployCreate3AndInit(bytes,bytes,(uint256,uint256),address)":"f5745aba","deployCreate3AndInit(bytes32,bytes,bytes,(uint256,uint256))":"00d84acb","deployCreate3AndInit(bytes32,bytes,bytes,(uint256,uint256),address)":"ddda0acb","deployCreateAndInit(bytes,bytes,(uint256,uint256))":"31a7c8c8","deployCreateAndInit(bytes,bytes,(uint256,uint256),address)":"98e81077","deployCreateClone(address,bytes)":"f9664498"},"id":0}