{"abi":[{"type":"constructor","inputs":[{"name":"_interopBridge","type":"address","internalType":"address"}],"stateMutability":"nonpayable"},{"type":"function","name":"interopBridge","inputs":[],"outputs":[{"name":"","type":"address","internalType":"contract InteropBridge"}],"stateMutability":"view"},{"type":"function","name":"isMessageExecuted","inputs":[{"name":"msgHash","type":"bytes32","internalType":"bytes32"}],"outputs":[{"name":"","type":"bool","internalType":"bool"}],"stateMutability":"view"},{"type":"function","name":"lastSender","inputs":[],"outputs":[{"name":"","type":"address","internalType":"address"}],"stateMutability":"view"},{"type":"function","name":"lastSourceChainId","inputs":[],"outputs":[{"name":"","type":"uint256","internalType":"uint256"}],"stateMutability":"view"},{"type":"function","name":"receiveValueUpdate","inputs":[{"name":"newValue","type":"uint256","internalType":"uint256"},{"name":"sourceChainId","type":"uint256","internalType":"uint256"},{"name":"sender","type":"address","internalType":"address"}],"outputs":[],"stateMutability":"nonpayable"},{"type":"function","name":"updateValueLocally","inputs":[{"name":"newValue","type":"uint256","internalType":"uint256"}],"outputs":[],"stateMutability":"nonpayable"},{"type":"function","name":"updateValueOnRemoteChain","inputs":[{"name":"targetChainId","type":"uint256","internalType":"uint256"},{"name":"targetContract","type":"address","internalType":"address"},{"name":"newValue","type":"uint256","internalType":"uint256"}],"outputs":[{"name":"","type":"bytes32","internalType":"bytes32"}],"stateMutability":"nonpayable"},{"type":"function","name":"value","inputs":[],"outputs":[{"name":"","type":"uint256","internalType":"uint256"}],"stateMutability":"view"},{"type":"event","name":"CrossChainUpdateRequested","inputs":[{"name":"targetChainId","type":"uint256","indexed":false,"internalType":"uint256"},{"name":"newValue","type":"uint256","indexed":false,"internalType":"uint256"},{"name":"msgHash","type":"bytes32","indexed":false,"internalType":"bytes32"}],"anonymous":false},{"type":"event","name":"ValueUpdated","inputs":[{"name":"newValue","type":"uint256","indexed":false,"internalType":"uint256"},{"name":"sourceChainId","type":"uint256","indexed":false,"internalType":"uint256"},{"name":"sender","type":"address","indexed":false,"internalType":"address"}],"anonymous":false}],"bytecode":{"object":"0x608060405234801561000f575f5ffd5b50604051610bd9380380610bd9833981810160405281019061003191906100d4565b805f5f6101000a81548173ffffffffffffffffffffffffffffffffffffffff021916908373ffffffffffffffffffffffffffffffffffffffff160217905550506100ff565b5f5ffd5b5f73ffffffffffffffffffffffffffffffffffffffff82169050919050565b5f6100a38261007a565b9050919050565b6100b381610099565b81146100bd575f5ffd5b50565b5f815190506100ce816100aa565b92915050565b5f602082840312156100e9576100e8610076565b5b5f6100f6848285016100c0565b91505092915050565b610acd8061010c5f395ff3fe608060405234801561000f575f5ffd5b5060043610610086575f3560e01c80639538a33e116100595780639538a33e14610126578063c668143114610142578063cbc5487714610160578063df64b9d21461017e57610086565b8063256fec881461008a578063396c16b7146100a85780633fa4f245146100d857806379026c8c146100f6575b5f5ffd5b61009261019a565b60405161009f91906105db565b60405180910390f35b6100c260048036038101906100bd919061062b565b6101bf565b6040516100cf9190610670565b60405180910390f35b6100e061025f565b6040516100ed91906106a1565b60405180910390f35b610110600480360381019061010b919061070e565b610265565b60405161011d919061076d565b60405180910390f35b610140600480360381019061013b9190610786565b6103ca565b005b61014a610456565b60405161015791906106a1565b60405180910390f35b61016861045c565b604051610175919061080c565b60405180910390f35b61019860048036038101906101939190610825565b610480565b005b60035f9054906101000a900473ffffffffffffffffffffffffffffffffffffffff1681565b5f5f5f9054906101000a900473ffffffffffffffffffffffffffffffffffffffff1673ffffffffffffffffffffffffffffffffffffffff1663396c16b7836040518263ffffffff1660e01b8152600401610219919061076d565b602060405180830381865afa158015610234573d5f5f3e3d5ffd5b505050506040513d601f19601f82011682018060405250810190610258919061089f565b9050919050565b60015481565b5f5f63df64b9d260e01b834633604051602401610284939291906108ca565b604051602081830303815290604052907bffffffffffffffffffffffffffffffffffffffffffffffffffffffff19166020820180517bffffffffffffffffffffffffffffffffffffffffffffffffffffffff838183161783525050505090505f5f5f9054906101000a900473ffffffffffffffffffffffffffffffffffffffff1673ffffffffffffffffffffffffffffffffffffffff1663ac002b4f8787856040518463ffffffff1660e01b81526004016103419392919061096f565b6020604051808303815f875af115801561035d573d5f5f3e3d5ffd5b505050506040513d601f19601f8201168201806040525081019061038191906109bf565b90507f0925472047cbfad2c5fbc3253b4b5e4940c32f2b880b69b28e14b29a812c87398685836040516103b6939291906109ea565b60405180910390a180925050509392505050565b80600181905550466002819055503360035f6101000a81548173ffffffffffffffffffffffffffffffffffffffff021916908373ffffffffffffffffffffffffffffffffffffffff1602179055507fd96280c39278f2e3eaaf96857762d3a2424fa2d9d4beb116105ca26cc2e3299881463360405161044b939291906108ca565b60405180910390a150565b60025481565b5f5f9054906101000a900473ffffffffffffffffffffffffffffffffffffffff1681565b5f5f9054906101000a900473ffffffffffffffffffffffffffffffffffffffff1673ffffffffffffffffffffffffffffffffffffffff163373ffffffffffffffffffffffffffffffffffffffff161461050e576040517f08c379a000000000000000000000000000000000000000000000000000000000815260040161050590610a79565b60405180910390fd5b82600181905550816002819055508060035f6101000a81548173ffffffffffffffffffffffffffffffffffffffff021916908373ffffffffffffffffffffffffffffffffffffffff1602179055507fd96280c39278f2e3eaaf96857762d3a2424fa2d9d4beb116105ca26cc2e3299883838360405161058f939291906108ca565b60405180910390a1505050565b5f73ffffffffffffffffffffffffffffffffffffffff82169050919050565b5f6105c58261059c565b9050919050565b6105d5816105bb565b82525050565b5f6020820190506105ee5f8301846105cc565b92915050565b5f5ffd5b5f819050919050565b61060a816105f8565b8114610614575f5ffd5b50565b5f8135905061062581610601565b92915050565b5f602082840312156106405761063f6105f4565b5b5f61064d84828501610617565b91505092915050565b5f8115159050919050565b61066a81610656565b82525050565b5f6020820190506106835f830184610661565b92915050565b5f819050919050565b61069b81610689565b82525050565b5f6020820190506106b45f830184610692565b92915050565b6106c381610689565b81146106cd575f5ffd5b50565b5f813590506106de816106ba565b92915050565b6106ed816105bb565b81146106f7575f5ffd5b50565b5f81359050610708816106e4565b92915050565b5f5f5f60608486031215610725576107246105f4565b5b5f610732868287016106d0565b9350506020610743868287016106fa565b9250506040610754868287016106d0565b9150509250925092565b610767816105f8565b82525050565b5f6020820190506107805f83018461075e565b92915050565b5f6020828403121561079b5761079a6105f4565b5b5f6107a8848285016106d0565b91505092915050565b5f819050919050565b5f6107d46107cf6107ca8461059c565b6107b1565b61059c565b9050919050565b5f6107e5826107ba565b9050919050565b5f6107f6826107db565b9050919050565b610806816107ec565b82525050565b5f60208201905061081f5f8301846107fd565b92915050565b5f5f5f6060848603121561083c5761083b6105f4565b5b5f610849868287016106d0565b935050602061085a868287016106d0565b925050604061086b868287016106fa565b9150509250925092565b61087e81610656565b8114610888575f5ffd5b50565b5f8151905061089981610875565b92915050565b5f602082840312156108b4576108b36105f4565b5b5f6108c18482850161088b565b91505092915050565b5f6060820190506108dd5f830186610692565b6108ea6020830185610692565b6108f760408301846105cc565b949350505050565b5f81519050919050565b5f82825260208201905092915050565b8281835e5f83830152505050565b5f601f19601f8301169050919050565b5f610941826108ff565b61094b8185610909565b935061095b818560208601610919565b61096481610927565b840191505092915050565b5f6060820190506109825f830186610692565b61098f60208301856105cc565b81810360408301526109a18184610937565b9050949350505050565b5f815190506109b981610601565b92915050565b5f602082840312156109d4576109d36105f4565b5b5f6109e1848285016109ab565b91505092915050565b5f6060820190506109fd5f830186610692565b610a0a6020830185610692565b610a17604083018461075e565b949350505050565b5f82825260208201905092915050565b7f4f6e6c7920496e7465726f704272696467652063616e2063616c6c00000000005f82015250565b5f610a63601b83610a1f565b9150610a6e82610a2f565b602082019050919050565b5f6020820190508181035f830152610a9081610a57565b905091905056fea264697066735822122094864c5aa00ef73627a0a9741ec00a2796b75f9cee13691da26040c8a0595a1364736f6c634300081c0033","linkReferences":{}},"methodIdentifiers":{"interopBridge()":"cbc54877","isMessageExecuted(bytes32)":"396c16b7","lastSender()":"256fec88","lastSourceChainId()":"c6681431","receiveValueUpdate(uint256,uint256,address)":"df64b9d2","updateValueLocally(uint256)":"9538a33e","updateValueOnRemoteChain(uint256,address,uint256)":"79026c8c","value()":"3fa4f245"},"id":18}